{
  "contracts/CoinFlip.sol": {
    "CoinFlip": {
      "abi": [
        {
          "inputs": [
            {
              "internalType": "address",
              "name": "vrfCoordinatorV2",
              "type": "address"
            },
            {
              "internalType": "bytes32",
              "name": "gasLane",
              "type": "bytes32"
            },
            {
              "internalType": "uint256",
              "name": "subscriptionId",
              "type": "uint256"
            },
            {
              "internalType": "uint32",
              "name": "callBackGasLimit",
              "type": "uint32"
            },
            {
              "internalType": "address payable",
              "name": "ownerAddress",
              "type": "address"
            }
          ],
          "stateMutability": "nonpayable",
          "type": "constructor"
        },
        {
          "inputs": [],
          "name": "CoinFlip__GameIsOpen",
          "type": "error"
        },
        {
          "inputs": [],
          "name": "CoinFlip__InvalidAmount",
          "type": "error"
        },
        {
          "inputs": [
            {
              "internalType": "address",
              "name": "have",
              "type": "address"
            },
            {
              "internalType": "address",
              "name": "want",
              "type": "address"
            }
          ],
          "name": "OnlyCoordinatorCanFulfill",
          "type": "error"
        },
        {
          "anonymous": false,
          "inputs": [
            {
              "indexed": false,
              "internalType": "uint256",
              "name": "_requestId",
              "type": "uint256"
            }
          ],
          "name": "RequestedRandomNumber",
          "type": "event"
        },
        {
          "inputs": [],
          "name": "getOwnerAddres",
          "outputs": [
            {
              "internalType": "address",
              "name": "",
              "type": "address"
            }
          ],
          "stateMutability": "view",
          "type": "function"
        },
        {
          "inputs": [],
          "name": "getRecentResult",
          "outputs": [
            {
              "internalType": "uint256",
              "name": "",
              "type": "uint256"
            }
          ],
          "stateMutability": "view",
          "type": "function"
        },
        {
          "inputs": [],
          "name": "i_betAmount",
          "outputs": [
            {
              "internalType": "uint256",
              "name": "",
              "type": "uint256"
            }
          ],
          "stateMutability": "view",
          "type": "function"
        },
        {
          "inputs": [
            {
              "internalType": "uint256",
              "name": "_amount",
              "type": "uint256"
            },
            {
              "internalType": "uint256",
              "name": "_choice",
              "type": "uint256"
            }
          ],
          "name": "placeBet",
          "outputs": [],
          "stateMutability": "payable",
          "type": "function"
        },
        {
          "inputs": [
            {
              "internalType": "uint256",
              "name": "",
              "type": "uint256"
            }
          ],
          "name": "randomWords",
          "outputs": [
            {
              "internalType": "uint256",
              "name": "",
              "type": "uint256"
            }
          ],
          "stateMutability": "view",
          "type": "function"
        },
        {
          "inputs": [
            {
              "internalType": "uint256",
              "name": "requestId",
              "type": "uint256"
            },
            {
              "internalType": "uint256[]",
              "name": "randomWords",
              "type": "uint256[]"
            }
          ],
          "name": "rawFulfillRandomWords",
          "outputs": [],
          "stateMutability": "nonpayable",
          "type": "function"
        }
      ],
      "evm": {
        "bytecode": {
          "linkReferences": {},
          "object": "6101406040523480156200001257600080fd5b506040516200114b3803806200114b8339818101604052810190620000389190620002af565b848073ffffffffffffffffffffffffffffffffffffffff1660808173ffffffffffffffffffffffffffffffffffffffff1681525050508473ffffffffffffffffffffffffffffffffffffffff1660c08173ffffffffffffffffffffffffffffffffffffffff16815250508360e081815250508267ffffffffffffffff166101008167ffffffffffffffff16815250508163ffffffff166101208163ffffffff16815250508073ffffffffffffffffffffffffffffffffffffffff1660a08173ffffffffffffffffffffffffffffffffffffffff16815250506000600260006101000a81548160ff0219169083600181111562000139576200013862000337565b5b0217905550505050505062000366565b600080fd5b600073ffffffffffffffffffffffffffffffffffffffff82169050919050565b60006200017b826200014e565b9050919050565b6200018d816200016e565b81146200019957600080fd5b50565b600081519050620001ad8162000182565b92915050565b6000819050919050565b620001c881620001b3565b8114620001d457600080fd5b50565b600081519050620001e881620001bd565b92915050565b6000819050919050565b6200020381620001ee565b81146200020f57600080fd5b50565b6000815190506200022381620001f8565b92915050565b600063ffffffff82169050919050565b620002448162000229565b81146200025057600080fd5b50565b600081519050620002648162000239565b92915050565b600062000277826200014e565b9050919050565b62000289816200026a565b81146200029557600080fd5b50565b600081519050620002a9816200027e565b92915050565b600080600080600060a08688031215620002ce57620002cd62000149565b5b6000620002de888289016200019c565b9550506020620002f188828901620001d7565b9450506040620003048882890162000212565b9350506060620003178882890162000253565b92505060806200032a8882890162000298565b9150509295509295909350565b7f4e487b7100000000000000000000000000000000000000000000000000000000600052602160045260246000fd5b60805160a05160c05160e0516101005161012051610d87620003c4600039600061037f0152600061035c0152600061033b015260006102ff01526000818161045001526105bc01526000818161015f01526101b30152610d876000f3fe6080604052600436106100555760003560e01c80631fe543e31461005a5780634afe62b514610083578063b2d5eaa11461009f578063ba1e6762146100ca578063beff730f146100f5578063fed03ed614610132575b600080fd5b34801561006657600080fd5b50610081600480360381019061007c91906108c2565b61015d565b005b61009d6004803603810190610098919061091e565b61021d565b005b3480156100ab57600080fd5b506100b4610446565b6040516100c1919061096d565b60405180910390f35b3480156100d657600080fd5b506100df61044c565b6040516100ec91906109c9565b60405180910390f35b34801561010157600080fd5b5061011c600480360381019061011791906109e4565b610474565b604051610129919061096d565b60405180910390f35b34801561013e57600080fd5b50610147610498565b604051610154919061096d565b60405180910390f35b7f000000000000000000000000000000000000000000000000000000000000000073ffffffffffffffffffffffffffffffffffffffff163373ffffffffffffffffffffffffffffffffffffffff161461020f57337f00000000000000000000000000000000000000000000000000000000000000006040517f1cf993f4000000000000000000000000000000000000000000000000000000008152600401610206929190610a11565b60405180910390fd5b61021982826104a2565b5050565b6000600181111561023157610230610a3a565b5b600260009054906101000a900460ff16600181111561025357610252610a3a565b5b141561028b576040517f14d0711e00000000000000000000000000000000000000000000000000000000815260040160405180910390fd5b6000600260006101000a81548160ff021916908360018111156102b1576102b0610a3a565b5b02179055508134146102ef576040517fe55975b600000000000000000000000000000000000000000000000000000000815260040160405180910390fd5b80600181905550816000819055507f000000000000000000000000000000000000000000000000000000000000000073ffffffffffffffffffffffffffffffffffffffff16635d3b1d307f00000000000000000000000000000000000000000000000000000000000000007f000000000000000000000000000000000000000000000000000000000000000060037f000000000000000000000000000000000000000000000000000000000000000060016040518663ffffffff1660e01b81526004016103c0959493929190610ae1565b6020604051808303816000875af11580156103df573d6000803e3d6000fd5b505050506040513d601f19601f820116820180604052508101906104039190610b49565b6003819055507f28a75f9a78cd502748cecc04795531fd051165f83e4be1270400ac7130873e2e60035460405161043a919061096d565b60405180910390a15050565b60005481565b60007f0000000000000000000000000000000000000000000000000000000000000000905090565b6004818154811061048457600080fd5b906000526020600020016000915090505481565b6000600554905090565b8160038190555080600490805190602001906104bf9291906106b5565b506002816000815181106104d6576104d5610b76565b5b60200260200101516104e89190610bd4565b60058190555060055460015414156105b85760003373ffffffffffffffffffffffffffffffffffffffff166002346105209190610c34565b60405161052c90610cbf565b60006040518083038185875af1925050503d8060008114610569576040519150601f19603f3d011682016040523d82523d6000602084013e61056e565b606091505b50509050806105b2576040517f08c379a00000000000000000000000000000000000000000000000000000000081526004016105a990610d31565b60405180910390fd5b50610686565b60007f000000000000000000000000000000000000000000000000000000000000000073ffffffffffffffffffffffffffffffffffffffff16346040516105fe90610cbf565b60006040518083038185875af1925050503d806000811461063b576040519150601f19603f3d011682016040523d82523d6000602084013e610640565b606091505b5050905080610684576040517f08c379a000000000000000000000000000000000000000000000000000000000815260040161067b90610d31565b60405180910390fd5b505b6001600260006101000a81548160ff021916908360018111156106ac576106ab610a3a565b5b02179055505050565b8280548282559060005260206000209081019282156106f1579160200282015b828111156106f05782518255916020019190600101906106d5565b5b5090506106fe9190610702565b5090565b5b8082111561071b576000816000905550600101610703565b5090565b6000604051905090565b600080fd5b600080fd5b6000819050919050565b61074681610733565b811461075157600080fd5b50565b6000813590506107638161073d565b92915050565b600080fd5b6000601f19601f8301169050919050565b7f4e487b7100000000000000000000000000000000000000000000000000000000600052604160045260246000fd5b6107b78261076e565b810181811067ffffffffffffffff821117156107d6576107d561077f565b5b80604052505050565b60006107e961071f565b90506107f582826107ae565b919050565b600067ffffffffffffffff8211156108155761081461077f565b5b602082029050602081019050919050565b600080fd5b600061083e610839846107fa565b6107df565b9050808382526020820190506020840283018581111561086157610860610826565b5b835b8181101561088a57806108768882610754565b845260208401935050602081019050610863565b5050509392505050565b600082601f8301126108a9576108a8610769565b5b81356108b984826020860161082b565b91505092915050565b600080604083850312156108d9576108d8610729565b5b60006108e785828601610754565b925050602083013567ffffffffffffffff8111156109085761090761072e565b5b61091485828601610894565b9150509250929050565b6000806040838503121561093557610934610729565b5b600061094385828601610754565b925050602061095485828601610754565b9150509250929050565b61096781610733565b82525050565b6000602082019050610982600083018461095e565b92915050565b600073ffffffffffffffffffffffffffffffffffffffff82169050919050565b60006109b382610988565b9050919050565b6109c3816109a8565b82525050565b60006020820190506109de60008301846109ba565b92915050565b6000602082840312156109fa576109f9610729565b5b6000610a0884828501610754565b91505092915050565b6000604082019050610a2660008301856109ba565b610a3360208301846109ba565b9392505050565b7f4e487b7100000000000000000000000000000000000000000000000000000000600052602160045260246000fd5b6000819050919050565b610a7c81610a69565b82525050565b600067ffffffffffffffff82169050919050565b610a9f81610a82565b82525050565b600061ffff82169050919050565b610abc81610aa5565b82525050565b600063ffffffff82169050919050565b610adb81610ac2565b82525050565b600060a082019050610af66000830188610a73565b610b036020830187610a96565b610b106040830186610ab3565b610b1d6060830185610ad2565b610b2a6080830184610ad2565b9695505050505050565b600081519050610b438161073d565b92915050565b600060208284031215610b5f57610b5e610729565b5b6000610b6d84828501610b34565b91505092915050565b7f4e487b7100000000000000000000000000000000000000000000000000000000600052603260045260246000fd5b7f4e487b7100000000000000000000000000000000000000000000000000000000600052601260045260246000fd5b6000610bdf82610733565b9150610bea83610733565b925082610bfa57610bf9610ba5565b5b828206905092915050565b7f4e487b7100000000000000000000000000000000000000000000000000000000600052601160045260246000fd5b6000610c3f82610733565b9150610c4a83610733565b9250817fffffffffffffffffffffffffffffffffffffffffffffffffffffffffffffffff0483118215151615610c8357610c82610c05565b5b828202905092915050565b600081905092915050565b50565b6000610ca9600083610c8e565b9150610cb482610c99565b600082019050919050565b6000610cca82610c9c565b9150819050919050565b600082825260208201905092915050565b7f5472616e73666572206661696c65640000000000000000000000000000000000600082015250565b6000610d1b600f83610cd4565b9150610d2682610ce5565b602082019050919050565b60006020820190508181036000830152610d4a81610d0e565b905091905056fea2646970667358221220f3cacd2d8e9b18dc4279ee2b7cad9bd6a545f5d949e40176bb5685e1eb5d4c8664736f6c634300080b0033",
          "opcodes": "PUSH2 0x140 PUSH1 0x40 MSTORE CALLVALUE DUP1 ISZERO PUSH3 0x12 JUMPI PUSH1 0x0 DUP1 REVERT JUMPDEST POP PUSH1 0x40 MLOAD PUSH3 0x114B CODESIZE SUB DUP1 PUSH3 0x114B DUP4 CODECOPY DUP2 DUP2 ADD PUSH1 0x40 MSTORE DUP2 ADD SWAP1 PUSH3 0x38 SWAP2 SWAP1 PUSH3 0x2AF JUMP JUMPDEST DUP5 DUP1 PUSH20 0xFFFFFFFFFFFFFFFFFFFFFFFFFFFFFFFFFFFFFFFF AND PUSH1 0x80 DUP2 PUSH20 0xFFFFFFFFFFFFFFFFFFFFFFFFFFFFFFFFFFFFFFFF AND DUP2 MSTORE POP POP POP DUP5 PUSH20 0xFFFFFFFFFFFFFFFFFFFFFFFFFFFFFFFFFFFFFFFF AND PUSH1 0xC0 DUP2 PUSH20 0xFFFFFFFFFFFFFFFFFFFFFFFFFFFFFFFFFFFFFFFF AND DUP2 MSTORE POP POP DUP4 PUSH1 0xE0 DUP2 DUP2 MSTORE POP POP DUP3 PUSH8 0xFFFFFFFFFFFFFFFF AND PUSH2 0x100 DUP2 PUSH8 0xFFFFFFFFFFFFFFFF AND DUP2 MSTORE POP POP DUP2 PUSH4 0xFFFFFFFF AND PUSH2 0x120 DUP2 PUSH4 0xFFFFFFFF AND DUP2 MSTORE POP POP DUP1 PUSH20 0xFFFFFFFFFFFFFFFFFFFFFFFFFFFFFFFFFFFFFFFF AND PUSH1 0xA0 DUP2 PUSH20 0xFFFFFFFFFFFFFFFFFFFFFFFFFFFFFFFFFFFFFFFF AND DUP2 MSTORE POP POP PUSH1 0x0 PUSH1 0x2 PUSH1 0x0 PUSH2 0x100 EXP DUP2 SLOAD DUP2 PUSH1 0xFF MUL NOT AND SWAP1 DUP4 PUSH1 0x1 DUP2 GT ISZERO PUSH3 0x139 JUMPI PUSH3 0x138 PUSH3 0x337 JUMP JUMPDEST JUMPDEST MUL OR SWAP1 SSTORE POP POP POP POP POP POP PUSH3 0x366 JUMP JUMPDEST PUSH1 0x0 DUP1 REVERT JUMPDEST PUSH1 0x0 PUSH20 0xFFFFFFFFFFFFFFFFFFFFFFFFFFFFFFFFFFFFFFFF DUP3 AND SWAP1 POP SWAP2 SWAP1 POP JUMP JUMPDEST PUSH1 0x0 PUSH3 0x17B DUP3 PUSH3 0x14E JUMP JUMPDEST SWAP1 POP SWAP2 SWAP1 POP JUMP JUMPDEST PUSH3 0x18D DUP2 PUSH3 0x16E JUMP JUMPDEST DUP2 EQ PUSH3 0x199 JUMPI PUSH1 0x0 DUP1 REVERT JUMPDEST POP JUMP JUMPDEST PUSH1 0x0 DUP2 MLOAD SWAP1 POP PUSH3 0x1AD DUP2 PUSH3 0x182 JUMP JUMPDEST SWAP3 SWAP2 POP POP JUMP JUMPDEST PUSH1 0x0 DUP2 SWAP1 POP SWAP2 SWAP1 POP JUMP JUMPDEST PUSH3 0x1C8 DUP2 PUSH3 0x1B3 JUMP JUMPDEST DUP2 EQ PUSH3 0x1D4 JUMPI PUSH1 0x0 DUP1 REVERT JUMPDEST POP JUMP JUMPDEST PUSH1 0x0 DUP2 MLOAD SWAP1 POP PUSH3 0x1E8 DUP2 PUSH3 0x1BD JUMP JUMPDEST SWAP3 SWAP2 POP POP JUMP JUMPDEST PUSH1 0x0 DUP2 SWAP1 POP SWAP2 SWAP1 POP JUMP JUMPDEST PUSH3 0x203 DUP2 PUSH3 0x1EE JUMP JUMPDEST DUP2 EQ PUSH3 0x20F JUMPI PUSH1 0x0 DUP1 REVERT JUMPDEST POP JUMP JUMPDEST PUSH1 0x0 DUP2 MLOAD SWAP1 POP PUSH3 0x223 DUP2 PUSH3 0x1F8 JUMP JUMPDEST SWAP3 SWAP2 POP POP JUMP JUMPDEST PUSH1 0x0 PUSH4 0xFFFFFFFF DUP3 AND SWAP1 POP SWAP2 SWAP1 POP JUMP JUMPDEST PUSH3 0x244 DUP2 PUSH3 0x229 JUMP JUMPDEST DUP2 EQ PUSH3 0x250 JUMPI PUSH1 0x0 DUP1 REVERT JUMPDEST POP JUMP JUMPDEST PUSH1 0x0 DUP2 MLOAD SWAP1 POP PUSH3 0x264 DUP2 PUSH3 0x239 JUMP JUMPDEST SWAP3 SWAP2 POP POP JUMP JUMPDEST PUSH1 0x0 PUSH3 0x277 DUP3 PUSH3 0x14E JUMP JUMPDEST SWAP1 POP SWAP2 SWAP1 POP JUMP JUMPDEST PUSH3 0x289 DUP2 PUSH3 0x26A JUMP JUMPDEST DUP2 EQ PUSH3 0x295 JUMPI PUSH1 0x0 DUP1 REVERT JUMPDEST POP JUMP JUMPDEST PUSH1 0x0 DUP2 MLOAD SWAP1 POP PUSH3 0x2A9 DUP2 PUSH3 0x27E JUMP JUMPDEST SWAP3 SWAP2 POP POP JUMP JUMPDEST PUSH1 0x0 DUP1 PUSH1 0x0 DUP1 PUSH1 0x0 PUSH1 0xA0 DUP7 DUP9 SUB SLT ISZERO PUSH3 0x2CE JUMPI PUSH3 0x2CD PUSH3 0x149 JUMP JUMPDEST JUMPDEST PUSH1 0x0 PUSH3 0x2DE DUP9 DUP3 DUP10 ADD PUSH3 0x19C JUMP JUMPDEST SWAP6 POP POP PUSH1 0x20 PUSH3 0x2F1 DUP9 DUP3 DUP10 ADD PUSH3 0x1D7 JUMP JUMPDEST SWAP5 POP POP PUSH1 0x40 PUSH3 0x304 DUP9 DUP3 DUP10 ADD PUSH3 0x212 JUMP JUMPDEST SWAP4 POP POP PUSH1 0x60 PUSH3 0x317 DUP9 DUP3 DUP10 ADD PUSH3 0x253 JUMP JUMPDEST SWAP3 POP POP PUSH1 0x80 PUSH3 0x32A DUP9 DUP3 DUP10 ADD PUSH3 0x298 JUMP JUMPDEST SWAP2 POP POP SWAP3 SWAP6 POP SWAP3 SWAP6 SWAP1 SWAP4 POP JUMP JUMPDEST PUSH32 0x4E487B7100000000000000000000000000000000000000000000000000000000 PUSH1 0x0 MSTORE PUSH1 0x21 PUSH1 0x4 MSTORE PUSH1 0x24 PUSH1 0x0 REVERT JUMPDEST PUSH1 0x80 MLOAD PUSH1 0xA0 MLOAD PUSH1 0xC0 MLOAD PUSH1 0xE0 MLOAD PUSH2 0x100 MLOAD PUSH2 0x120 MLOAD PUSH2 0xD87 PUSH3 0x3C4 PUSH1 0x0 CODECOPY PUSH1 0x0 PUSH2 0x37F ADD MSTORE PUSH1 0x0 PUSH2 0x35C ADD MSTORE PUSH1 0x0 PUSH2 0x33B ADD MSTORE PUSH1 0x0 PUSH2 0x2FF ADD MSTORE PUSH1 0x0 DUP2 DUP2 PUSH2 0x450 ADD MSTORE PUSH2 0x5BC ADD MSTORE PUSH1 0x0 DUP2 DUP2 PUSH2 0x15F ADD MSTORE PUSH2 0x1B3 ADD MSTORE PUSH2 0xD87 PUSH1 0x0 RETURN INVALID PUSH1 0x80 PUSH1 0x40 MSTORE PUSH1 0x4 CALLDATASIZE LT PUSH2 0x55 JUMPI PUSH1 0x0 CALLDATALOAD PUSH1 0xE0 SHR DUP1 PUSH4 0x1FE543E3 EQ PUSH2 0x5A JUMPI DUP1 PUSH4 0x4AFE62B5 EQ PUSH2 0x83 JUMPI DUP1 PUSH4 0xB2D5EAA1 EQ PUSH2 0x9F JUMPI DUP1 PUSH4 0xBA1E6762 EQ PUSH2 0xCA JUMPI DUP1 PUSH4 0xBEFF730F EQ PUSH2 0xF5 JUMPI DUP1 PUSH4 0xFED03ED6 EQ PUSH2 0x132 JUMPI JUMPDEST PUSH1 0x0 DUP1 REVERT JUMPDEST CALLVALUE DUP1 ISZERO PUSH2 0x66 JUMPI PUSH1 0x0 DUP1 REVERT JUMPDEST POP PUSH2 0x81 PUSH1 0x4 DUP1 CALLDATASIZE SUB DUP2 ADD SWAP1 PUSH2 0x7C SWAP2 SWAP1 PUSH2 0x8C2 JUMP JUMPDEST PUSH2 0x15D JUMP JUMPDEST STOP JUMPDEST PUSH2 0x9D PUSH1 0x4 DUP1 CALLDATASIZE SUB DUP2 ADD SWAP1 PUSH2 0x98 SWAP2 SWAP1 PUSH2 0x91E JUMP JUMPDEST PUSH2 0x21D JUMP JUMPDEST STOP JUMPDEST CALLVALUE DUP1 ISZERO PUSH2 0xAB JUMPI PUSH1 0x0 DUP1 REVERT JUMPDEST POP PUSH2 0xB4 PUSH2 0x446 JUMP JUMPDEST PUSH1 0x40 MLOAD PUSH2 0xC1 SWAP2 SWAP1 PUSH2 0x96D JUMP JUMPDEST PUSH1 0x40 MLOAD DUP1 SWAP2 SUB SWAP1 RETURN JUMPDEST CALLVALUE DUP1 ISZERO PUSH2 0xD6 JUMPI PUSH1 0x0 DUP1 REVERT JUMPDEST POP PUSH2 0xDF PUSH2 0x44C JUMP JUMPDEST PUSH1 0x40 MLOAD PUSH2 0xEC SWAP2 SWAP1 PUSH2 0x9C9 JUMP JUMPDEST PUSH1 0x40 MLOAD DUP1 SWAP2 SUB SWAP1 RETURN JUMPDEST CALLVALUE DUP1 ISZERO PUSH2 0x101 JUMPI PUSH1 0x0 DUP1 REVERT JUMPDEST POP PUSH2 0x11C PUSH1 0x4 DUP1 CALLDATASIZE SUB DUP2 ADD SWAP1 PUSH2 0x117 SWAP2 SWAP1 PUSH2 0x9E4 JUMP JUMPDEST PUSH2 0x474 JUMP JUMPDEST PUSH1 0x40 MLOAD PUSH2 0x129 SWAP2 SWAP1 PUSH2 0x96D JUMP JUMPDEST PUSH1 0x40 MLOAD DUP1 SWAP2 SUB SWAP1 RETURN JUMPDEST CALLVALUE DUP1 ISZERO PUSH2 0x13E JUMPI PUSH1 0x0 DUP1 REVERT JUMPDEST POP PUSH2 0x147 PUSH2 0x498 JUMP JUMPDEST PUSH1 0x40 MLOAD PUSH2 0x154 SWAP2 SWAP1 PUSH2 0x96D JUMP JUMPDEST PUSH1 0x40 MLOAD DUP1 SWAP2 SUB SWAP1 RETURN JUMPDEST PUSH32 0x0 PUSH20 0xFFFFFFFFFFFFFFFFFFFFFFFFFFFFFFFFFFFFFFFF AND CALLER PUSH20 0xFFFFFFFFFFFFFFFFFFFFFFFFFFFFFFFFFFFFFFFF AND EQ PUSH2 0x20F JUMPI CALLER PUSH32 0x0 PUSH1 0x40 MLOAD PUSH32 0x1CF993F400000000000000000000000000000000000000000000000000000000 DUP2 MSTORE PUSH1 0x4 ADD PUSH2 0x206 SWAP3 SWAP2 SWAP1 PUSH2 0xA11 JUMP JUMPDEST PUSH1 0x40 MLOAD DUP1 SWAP2 SUB SWAP1 REVERT JUMPDEST PUSH2 0x219 DUP3 DUP3 PUSH2 0x4A2 JUMP JUMPDEST POP POP JUMP JUMPDEST PUSH1 0x0 PUSH1 0x1 DUP2 GT ISZERO PUSH2 0x231 JUMPI PUSH2 0x230 PUSH2 0xA3A JUMP JUMPDEST JUMPDEST PUSH1 0x2 PUSH1 0x0 SWAP1 SLOAD SWAP1 PUSH2 0x100 EXP SWAP1 DIV PUSH1 0xFF AND PUSH1 0x1 DUP2 GT ISZERO PUSH2 0x253 JUMPI PUSH2 0x252 PUSH2 0xA3A JUMP JUMPDEST JUMPDEST EQ ISZERO PUSH2 0x28B JUMPI PUSH1 0x40 MLOAD PUSH32 0x14D0711E00000000000000000000000000000000000000000000000000000000 DUP2 MSTORE PUSH1 0x4 ADD PUSH1 0x40 MLOAD DUP1 SWAP2 SUB SWAP1 REVERT JUMPDEST PUSH1 0x0 PUSH1 0x2 PUSH1 0x0 PUSH2 0x100 EXP DUP2 SLOAD DUP2 PUSH1 0xFF MUL NOT AND SWAP1 DUP4 PUSH1 0x1 DUP2 GT ISZERO PUSH2 0x2B1 JUMPI PUSH2 0x2B0 PUSH2 0xA3A JUMP JUMPDEST JUMPDEST MUL OR SWAP1 SSTORE POP DUP2 CALLVALUE EQ PUSH2 0x2EF JUMPI PUSH1 0x40 MLOAD PUSH32 0xE55975B600000000000000000000000000000000000000000000000000000000 DUP2 MSTORE PUSH1 0x4 ADD PUSH1 0x40 MLOAD DUP1 SWAP2 SUB SWAP1 REVERT JUMPDEST DUP1 PUSH1 0x1 DUP2 SWAP1 SSTORE POP DUP2 PUSH1 0x0 DUP2 SWAP1 SSTORE POP PUSH32 0x0 PUSH20 0xFFFFFFFFFFFFFFFFFFFFFFFFFFFFFFFFFFFFFFFF AND PUSH4 0x5D3B1D30 PUSH32 0x0 PUSH32 0x0 PUSH1 0x3 PUSH32 0x0 PUSH1 0x1 PUSH1 0x40 MLOAD DUP7 PUSH4 0xFFFFFFFF AND PUSH1 0xE0 SHL DUP2 MSTORE PUSH1 0x4 ADD PUSH2 0x3C0 SWAP6 SWAP5 SWAP4 SWAP3 SWAP2 SWAP1 PUSH2 0xAE1 JUMP JUMPDEST PUSH1 0x20 PUSH1 0x40 MLOAD DUP1 DUP4 SUB DUP2 PUSH1 0x0 DUP8 GAS CALL ISZERO DUP1 ISZERO PUSH2 0x3DF JUMPI RETURNDATASIZE PUSH1 0x0 DUP1 RETURNDATACOPY RETURNDATASIZE PUSH1 0x0 REVERT JUMPDEST POP POP POP POP PUSH1 0x40 MLOAD RETURNDATASIZE PUSH1 0x1F NOT PUSH1 0x1F DUP3 ADD AND DUP3 ADD DUP1 PUSH1 0x40 MSTORE POP DUP2 ADD SWAP1 PUSH2 0x403 SWAP2 SWAP1 PUSH2 0xB49 JUMP JUMPDEST PUSH1 0x3 DUP2 SWAP1 SSTORE POP PUSH32 0x28A75F9A78CD502748CECC04795531FD051165F83E4BE1270400AC7130873E2E PUSH1 0x3 SLOAD PUSH1 0x40 MLOAD PUSH2 0x43A SWAP2 SWAP1 PUSH2 0x96D JUMP JUMPDEST PUSH1 0x40 MLOAD DUP1 SWAP2 SUB SWAP1 LOG1 POP POP JUMP JUMPDEST PUSH1 0x0 SLOAD DUP2 JUMP JUMPDEST PUSH1 0x0 PUSH32 0x0 SWAP1 POP SWAP1 JUMP JUMPDEST PUSH1 0x4 DUP2 DUP2 SLOAD DUP2 LT PUSH2 0x484 JUMPI PUSH1 0x0 DUP1 REVERT JUMPDEST SWAP1 PUSH1 0x0 MSTORE PUSH1 0x20 PUSH1 0x0 KECCAK256 ADD PUSH1 0x0 SWAP2 POP SWAP1 POP SLOAD DUP2 JUMP JUMPDEST PUSH1 0x0 PUSH1 0x5 SLOAD SWAP1 POP SWAP1 JUMP JUMPDEST DUP2 PUSH1 0x3 DUP2 SWAP1 SSTORE POP DUP1 PUSH1 0x4 SWAP1 DUP1 MLOAD SWAP1 PUSH1 0x20 ADD SWAP1 PUSH2 0x4BF SWAP3 SWAP2 SWAP1 PUSH2 0x6B5 JUMP JUMPDEST POP PUSH1 0x2 DUP2 PUSH1 0x0 DUP2 MLOAD DUP2 LT PUSH2 0x4D6 JUMPI PUSH2 0x4D5 PUSH2 0xB76 JUMP JUMPDEST JUMPDEST PUSH1 0x20 MUL PUSH1 0x20 ADD ADD MLOAD PUSH2 0x4E8 SWAP2 SWAP1 PUSH2 0xBD4 JUMP JUMPDEST PUSH1 0x5 DUP2 SWAP1 SSTORE POP PUSH1 0x5 SLOAD PUSH1 0x1 SLOAD EQ ISZERO PUSH2 0x5B8 JUMPI PUSH1 0x0 CALLER PUSH20 0xFFFFFFFFFFFFFFFFFFFFFFFFFFFFFFFFFFFFFFFF AND PUSH1 0x2 CALLVALUE PUSH2 0x520 SWAP2 SWAP1 PUSH2 0xC34 JUMP JUMPDEST PUSH1 0x40 MLOAD PUSH2 0x52C SWAP1 PUSH2 0xCBF JUMP JUMPDEST PUSH1 0x0 PUSH1 0x40 MLOAD DUP1 DUP4 SUB DUP2 DUP6 DUP8 GAS CALL SWAP3 POP POP POP RETURNDATASIZE DUP1 PUSH1 0x0 DUP2 EQ PUSH2 0x569 JUMPI PUSH1 0x40 MLOAD SWAP2 POP PUSH1 0x1F NOT PUSH1 0x3F RETURNDATASIZE ADD AND DUP3 ADD PUSH1 0x40 MSTORE RETURNDATASIZE DUP3 MSTORE RETURNDATASIZE PUSH1 0x0 PUSH1 0x20 DUP5 ADD RETURNDATACOPY PUSH2 0x56E JUMP JUMPDEST PUSH1 0x60 SWAP2 POP JUMPDEST POP POP SWAP1 POP DUP1 PUSH2 0x5B2 JUMPI PUSH1 0x40 MLOAD PUSH32 0x8C379A000000000000000000000000000000000000000000000000000000000 DUP2 MSTORE PUSH1 0x4 ADD PUSH2 0x5A9 SWAP1 PUSH2 0xD31 JUMP JUMPDEST PUSH1 0x40 MLOAD DUP1 SWAP2 SUB SWAP1 REVERT JUMPDEST POP PUSH2 0x686 JUMP JUMPDEST PUSH1 0x0 PUSH32 0x0 PUSH20 0xFFFFFFFFFFFFFFFFFFFFFFFFFFFFFFFFFFFFFFFF AND CALLVALUE PUSH1 0x40 MLOAD PUSH2 0x5FE SWAP1 PUSH2 0xCBF JUMP JUMPDEST PUSH1 0x0 PUSH1 0x40 MLOAD DUP1 DUP4 SUB DUP2 DUP6 DUP8 GAS CALL SWAP3 POP POP POP RETURNDATASIZE DUP1 PUSH1 0x0 DUP2 EQ PUSH2 0x63B JUMPI PUSH1 0x40 MLOAD SWAP2 POP PUSH1 0x1F NOT PUSH1 0x3F RETURNDATASIZE ADD AND DUP3 ADD PUSH1 0x40 MSTORE RETURNDATASIZE DUP3 MSTORE RETURNDATASIZE PUSH1 0x0 PUSH1 0x20 DUP5 ADD RETURNDATACOPY PUSH2 0x640 JUMP JUMPDEST PUSH1 0x60 SWAP2 POP JUMPDEST POP POP SWAP1 POP DUP1 PUSH2 0x684 JUMPI PUSH1 0x40 MLOAD PUSH32 0x8C379A000000000000000000000000000000000000000000000000000000000 DUP2 MSTORE PUSH1 0x4 ADD PUSH2 0x67B SWAP1 PUSH2 0xD31 JUMP JUMPDEST PUSH1 0x40 MLOAD DUP1 SWAP2 SUB SWAP1 REVERT JUMPDEST POP JUMPDEST PUSH1 0x1 PUSH1 0x2 PUSH1 0x0 PUSH2 0x100 EXP DUP2 SLOAD DUP2 PUSH1 0xFF MUL NOT AND SWAP1 DUP4 PUSH1 0x1 DUP2 GT ISZERO PUSH2 0x6AC JUMPI PUSH2 0x6AB PUSH2 0xA3A JUMP JUMPDEST JUMPDEST MUL OR SWAP1 SSTORE POP POP POP JUMP JUMPDEST DUP3 DUP1 SLOAD DUP3 DUP3 SSTORE SWAP1 PUSH1 0x0 MSTORE PUSH1 0x20 PUSH1 0x0 KECCAK256 SWAP1 DUP2 ADD SWAP3 DUP3 ISZERO PUSH2 0x6F1 JUMPI SWAP2 PUSH1 0x20 MUL DUP3 ADD JUMPDEST DUP3 DUP2 GT ISZERO PUSH2 0x6F0 JUMPI DUP3 MLOAD DUP3 SSTORE SWAP2 PUSH1 0x20 ADD SWAP2 SWAP1 PUSH1 0x1 ADD SWAP1 PUSH2 0x6D5 JUMP JUMPDEST JUMPDEST POP SWAP1 POP PUSH2 0x6FE SWAP2 SWAP1 PUSH2 0x702 JUMP JUMPDEST POP SWAP1 JUMP JUMPDEST JUMPDEST DUP1 DUP3 GT ISZERO PUSH2 0x71B JUMPI PUSH1 0x0 DUP2 PUSH1 0x0 SWAP1 SSTORE POP PUSH1 0x1 ADD PUSH2 0x703 JUMP JUMPDEST POP SWAP1 JUMP JUMPDEST PUSH1 0x0 PUSH1 0x40 MLOAD SWAP1 POP SWAP1 JUMP JUMPDEST PUSH1 0x0 DUP1 REVERT JUMPDEST PUSH1 0x0 DUP1 REVERT JUMPDEST PUSH1 0x0 DUP2 SWAP1 POP SWAP2 SWAP1 POP JUMP JUMPDEST PUSH2 0x746 DUP2 PUSH2 0x733 JUMP JUMPDEST DUP2 EQ PUSH2 0x751 JUMPI PUSH1 0x0 DUP1 REVERT JUMPDEST POP JUMP JUMPDEST PUSH1 0x0 DUP2 CALLDATALOAD SWAP1 POP PUSH2 0x763 DUP2 PUSH2 0x73D JUMP JUMPDEST SWAP3 SWAP2 POP POP JUMP JUMPDEST PUSH1 0x0 DUP1 REVERT JUMPDEST PUSH1 0x0 PUSH1 0x1F NOT PUSH1 0x1F DUP4 ADD AND SWAP1 POP SWAP2 SWAP1 POP JUMP JUMPDEST PUSH32 0x4E487B7100000000000000000000000000000000000000000000000000000000 PUSH1 0x0 MSTORE PUSH1 0x41 PUSH1 0x4 MSTORE PUSH1 0x24 PUSH1 0x0 REVERT JUMPDEST PUSH2 0x7B7 DUP3 PUSH2 0x76E JUMP JUMPDEST DUP2 ADD DUP2 DUP2 LT PUSH8 0xFFFFFFFFFFFFFFFF DUP3 GT OR ISZERO PUSH2 0x7D6 JUMPI PUSH2 0x7D5 PUSH2 0x77F JUMP JUMPDEST JUMPDEST DUP1 PUSH1 0x40 MSTORE POP POP POP JUMP JUMPDEST PUSH1 0x0 PUSH2 0x7E9 PUSH2 0x71F JUMP JUMPDEST SWAP1 POP PUSH2 0x7F5 DUP3 DUP3 PUSH2 0x7AE JUMP JUMPDEST SWAP2 SWAP1 POP JUMP JUMPDEST PUSH1 0x0 PUSH8 0xFFFFFFFFFFFFFFFF DUP3 GT ISZERO PUSH2 0x815 JUMPI PUSH2 0x814 PUSH2 0x77F JUMP JUMPDEST JUMPDEST PUSH1 0x20 DUP3 MUL SWAP1 POP PUSH1 0x20 DUP2 ADD SWAP1 POP SWAP2 SWAP1 POP JUMP JUMPDEST PUSH1 0x0 DUP1 REVERT JUMPDEST PUSH1 0x0 PUSH2 0x83E PUSH2 0x839 DUP5 PUSH2 0x7FA JUMP JUMPDEST PUSH2 0x7DF JUMP JUMPDEST SWAP1 POP DUP1 DUP4 DUP3 MSTORE PUSH1 0x20 DUP3 ADD SWAP1 POP PUSH1 0x20 DUP5 MUL DUP4 ADD DUP6 DUP2 GT ISZERO PUSH2 0x861 JUMPI PUSH2 0x860 PUSH2 0x826 JUMP JUMPDEST JUMPDEST DUP4 JUMPDEST DUP2 DUP2 LT ISZERO PUSH2 0x88A JUMPI DUP1 PUSH2 0x876 DUP9 DUP3 PUSH2 0x754 JUMP JUMPDEST DUP5 MSTORE PUSH1 0x20 DUP5 ADD SWAP4 POP POP PUSH1 0x20 DUP2 ADD SWAP1 POP PUSH2 0x863 JUMP JUMPDEST POP POP POP SWAP4 SWAP3 POP POP POP JUMP JUMPDEST PUSH1 0x0 DUP3 PUSH1 0x1F DUP4 ADD SLT PUSH2 0x8A9 JUMPI PUSH2 0x8A8 PUSH2 0x769 JUMP JUMPDEST JUMPDEST DUP2 CALLDATALOAD PUSH2 0x8B9 DUP5 DUP3 PUSH1 0x20 DUP7 ADD PUSH2 0x82B JUMP JUMPDEST SWAP2 POP POP SWAP3 SWAP2 POP POP JUMP JUMPDEST PUSH1 0x0 DUP1 PUSH1 0x40 DUP4 DUP6 SUB SLT ISZERO PUSH2 0x8D9 JUMPI PUSH2 0x8D8 PUSH2 0x729 JUMP JUMPDEST JUMPDEST PUSH1 0x0 PUSH2 0x8E7 DUP6 DUP3 DUP7 ADD PUSH2 0x754 JUMP JUMPDEST SWAP3 POP POP PUSH1 0x20 DUP4 ADD CALLDATALOAD PUSH8 0xFFFFFFFFFFFFFFFF DUP2 GT ISZERO PUSH2 0x908 JUMPI PUSH2 0x907 PUSH2 0x72E JUMP JUMPDEST JUMPDEST PUSH2 0x914 DUP6 DUP3 DUP7 ADD PUSH2 0x894 JUMP JUMPDEST SWAP2 POP POP SWAP3 POP SWAP3 SWAP1 POP JUMP JUMPDEST PUSH1 0x0 DUP1 PUSH1 0x40 DUP4 DUP6 SUB SLT ISZERO PUSH2 0x935 JUMPI PUSH2 0x934 PUSH2 0x729 JUMP JUMPDEST JUMPDEST PUSH1 0x0 PUSH2 0x943 DUP6 DUP3 DUP7 ADD PUSH2 0x754 JUMP JUMPDEST SWAP3 POP POP PUSH1 0x20 PUSH2 0x954 DUP6 DUP3 DUP7 ADD PUSH2 0x754 JUMP JUMPDEST SWAP2 POP POP SWAP3 POP SWAP3 SWAP1 POP JUMP JUMPDEST PUSH2 0x967 DUP2 PUSH2 0x733 JUMP JUMPDEST DUP3 MSTORE POP POP JUMP JUMPDEST PUSH1 0x0 PUSH1 0x20 DUP3 ADD SWAP1 POP PUSH2 0x982 PUSH1 0x0 DUP4 ADD DUP5 PUSH2 0x95E JUMP JUMPDEST SWAP3 SWAP2 POP POP JUMP JUMPDEST PUSH1 0x0 PUSH20 0xFFFFFFFFFFFFFFFFFFFFFFFFFFFFFFFFFFFFFFFF DUP3 AND SWAP1 POP SWAP2 SWAP1 POP JUMP JUMPDEST PUSH1 0x0 PUSH2 0x9B3 DUP3 PUSH2 0x988 JUMP JUMPDEST SWAP1 POP SWAP2 SWAP1 POP JUMP JUMPDEST PUSH2 0x9C3 DUP2 PUSH2 0x9A8 JUMP JUMPDEST DUP3 MSTORE POP POP JUMP JUMPDEST PUSH1 0x0 PUSH1 0x20 DUP3 ADD SWAP1 POP PUSH2 0x9DE PUSH1 0x0 DUP4 ADD DUP5 PUSH2 0x9BA JUMP JUMPDEST SWAP3 SWAP2 POP POP JUMP JUMPDEST PUSH1 0x0 PUSH1 0x20 DUP3 DUP5 SUB SLT ISZERO PUSH2 0x9FA JUMPI PUSH2 0x9F9 PUSH2 0x729 JUMP JUMPDEST JUMPDEST PUSH1 0x0 PUSH2 0xA08 DUP5 DUP3 DUP6 ADD PUSH2 0x754 JUMP JUMPDEST SWAP2 POP POP SWAP3 SWAP2 POP POP JUMP JUMPDEST PUSH1 0x0 PUSH1 0x40 DUP3 ADD SWAP1 POP PUSH2 0xA26 PUSH1 0x0 DUP4 ADD DUP6 PUSH2 0x9BA JUMP JUMPDEST PUSH2 0xA33 PUSH1 0x20 DUP4 ADD DUP5 PUSH2 0x9BA JUMP JUMPDEST SWAP4 SWAP3 POP POP POP JUMP JUMPDEST PUSH32 0x4E487B7100000000000000000000000000000000000000000000000000000000 PUSH1 0x0 MSTORE PUSH1 0x21 PUSH1 0x4 MSTORE PUSH1 0x24 PUSH1 0x0 REVERT JUMPDEST PUSH1 0x0 DUP2 SWAP1 POP SWAP2 SWAP1 POP JUMP JUMPDEST PUSH2 0xA7C DUP2 PUSH2 0xA69 JUMP JUMPDEST DUP3 MSTORE POP POP JUMP JUMPDEST PUSH1 0x0 PUSH8 0xFFFFFFFFFFFFFFFF DUP3 AND SWAP1 POP SWAP2 SWAP1 POP JUMP JUMPDEST PUSH2 0xA9F DUP2 PUSH2 0xA82 JUMP JUMPDEST DUP3 MSTORE POP POP JUMP JUMPDEST PUSH1 0x0 PUSH2 0xFFFF DUP3 AND SWAP1 POP SWAP2 SWAP1 POP JUMP JUMPDEST PUSH2 0xABC DUP2 PUSH2 0xAA5 JUMP JUMPDEST DUP3 MSTORE POP POP JUMP JUMPDEST PUSH1 0x0 PUSH4 0xFFFFFFFF DUP3 AND SWAP1 POP SWAP2 SWAP1 POP JUMP JUMPDEST PUSH2 0xADB DUP2 PUSH2 0xAC2 JUMP JUMPDEST DUP3 MSTORE POP POP JUMP JUMPDEST PUSH1 0x0 PUSH1 0xA0 DUP3 ADD SWAP1 POP PUSH2 0xAF6 PUSH1 0x0 DUP4 ADD DUP9 PUSH2 0xA73 JUMP JUMPDEST PUSH2 0xB03 PUSH1 0x20 DUP4 ADD DUP8 PUSH2 0xA96 JUMP JUMPDEST PUSH2 0xB10 PUSH1 0x40 DUP4 ADD DUP7 PUSH2 0xAB3 JUMP JUMPDEST PUSH2 0xB1D PUSH1 0x60 DUP4 ADD DUP6 PUSH2 0xAD2 JUMP JUMPDEST PUSH2 0xB2A PUSH1 0x80 DUP4 ADD DUP5 PUSH2 0xAD2 JUMP JUMPDEST SWAP7 SWAP6 POP POP POP POP POP POP JUMP JUMPDEST PUSH1 0x0 DUP2 MLOAD SWAP1 POP PUSH2 0xB43 DUP2 PUSH2 0x73D JUMP JUMPDEST SWAP3 SWAP2 POP POP JUMP JUMPDEST PUSH1 0x0 PUSH1 0x20 DUP3 DUP5 SUB SLT ISZERO PUSH2 0xB5F JUMPI PUSH2 0xB5E PUSH2 0x729 JUMP JUMPDEST JUMPDEST PUSH1 0x0 PUSH2 0xB6D DUP5 DUP3 DUP6 ADD PUSH2 0xB34 JUMP JUMPDEST SWAP2 POP POP SWAP3 SWAP2 POP POP JUMP JUMPDEST PUSH32 0x4E487B7100000000000000000000000000000000000000000000000000000000 PUSH1 0x0 MSTORE PUSH1 0x32 PUSH1 0x4 MSTORE PUSH1 0x24 PUSH1 0x0 REVERT JUMPDEST PUSH32 0x4E487B7100000000000000000000000000000000000000000000000000000000 PUSH1 0x0 MSTORE PUSH1 0x12 PUSH1 0x4 MSTORE PUSH1 0x24 PUSH1 0x0 REVERT JUMPDEST PUSH1 0x0 PUSH2 0xBDF DUP3 PUSH2 0x733 JUMP JUMPDEST SWAP2 POP PUSH2 0xBEA DUP4 PUSH2 0x733 JUMP JUMPDEST SWAP3 POP DUP3 PUSH2 0xBFA JUMPI PUSH2 0xBF9 PUSH2 0xBA5 JUMP JUMPDEST JUMPDEST DUP3 DUP3 MOD SWAP1 POP SWAP3 SWAP2 POP POP JUMP JUMPDEST PUSH32 0x4E487B7100000000000000000000000000000000000000000000000000000000 PUSH1 0x0 MSTORE PUSH1 0x11 PUSH1 0x4 MSTORE PUSH1 0x24 PUSH1 0x0 REVERT JUMPDEST PUSH1 0x0 PUSH2 0xC3F DUP3 PUSH2 0x733 JUMP JUMPDEST SWAP2 POP PUSH2 0xC4A DUP4 PUSH2 0x733 JUMP JUMPDEST SWAP3 POP DUP2 PUSH32 0xFFFFFFFFFFFFFFFFFFFFFFFFFFFFFFFFFFFFFFFFFFFFFFFFFFFFFFFFFFFFFFFF DIV DUP4 GT DUP3 ISZERO ISZERO AND ISZERO PUSH2 0xC83 JUMPI PUSH2 0xC82 PUSH2 0xC05 JUMP JUMPDEST JUMPDEST DUP3 DUP3 MUL SWAP1 POP SWAP3 SWAP2 POP POP JUMP JUMPDEST PUSH1 0x0 DUP2 SWAP1 POP SWAP3 SWAP2 POP POP JUMP JUMPDEST POP JUMP JUMPDEST PUSH1 0x0 PUSH2 0xCA9 PUSH1 0x0 DUP4 PUSH2 0xC8E JUMP JUMPDEST SWAP2 POP PUSH2 0xCB4 DUP3 PUSH2 0xC99 JUMP JUMPDEST PUSH1 0x0 DUP3 ADD SWAP1 POP SWAP2 SWAP1 POP JUMP JUMPDEST PUSH1 0x0 PUSH2 0xCCA DUP3 PUSH2 0xC9C JUMP JUMPDEST SWAP2 POP DUP2 SWAP1 POP SWAP2 SWAP1 POP JUMP JUMPDEST PUSH1 0x0 DUP3 DUP3 MSTORE PUSH1 0x20 DUP3 ADD SWAP1 POP SWAP3 SWAP2 POP POP JUMP JUMPDEST PUSH32 0x5472616E73666572206661696C65640000000000000000000000000000000000 PUSH1 0x0 DUP3 ADD MSTORE POP JUMP JUMPDEST PUSH1 0x0 PUSH2 0xD1B PUSH1 0xF DUP4 PUSH2 0xCD4 JUMP JUMPDEST SWAP2 POP PUSH2 0xD26 DUP3 PUSH2 0xCE5 JUMP JUMPDEST PUSH1 0x20 DUP3 ADD SWAP1 POP SWAP2 SWAP1 POP JUMP JUMPDEST PUSH1 0x0 PUSH1 0x20 DUP3 ADD SWAP1 POP DUP2 DUP2 SUB PUSH1 0x0 DUP4 ADD MSTORE PUSH2 0xD4A DUP2 PUSH2 0xD0E JUMP JUMPDEST SWAP1 POP SWAP2 SWAP1 POP JUMP INVALID LOG2 PUSH5 0x6970667358 0x22 SLT KECCAK256 RETURN 0xCA 0xCD 0x2D DUP15 SWAP12 XOR 0xDC TIMESTAMP PUSH26 0xEE2B7CAD9BD6A545F5D949E40176BB5685E1EB5D4C8664736F6C PUSH4 0x4300080B STOP CALLER "
        },
        "methodIdentifiers": {
          "getOwnerAddres()": "ba1e6762",
          "getRecentResult()": "fed03ed6",
          "i_betAmount()": "b2d5eaa1",
          "placeBet(uint256,uint256)": "4afe62b5",
          "randomWords(uint256)": "beff730f",
          "rawFulfillRandomWords(uint256,uint256[])": "1fe543e3"
        }
      }
    }
  }
}