{
  "_format": "hh-sol-artifact-1",
  "contractName": "BiasedFlip",
  "sourceName": "contracts/BiasedFlip.sol",
  "abi": [
    {
      "inputs": [
        {
          "internalType": "address payable",
          "name": "ownerAddress",
          "type": "address"
        }
      ],
      "stateMutability": "nonpayable",
      "type": "constructor"
    },
    {
      "inputs": [],
      "name": "CoinFlip__GameIsOpen",
      "type": "error"
    },
    {
      "inputs": [],
      "name": "CoinFlip__InvalidAmount",
      "type": "error"
    },
    {
      "inputs": [],
      "name": "getOwnerAddres",
      "outputs": [
        {
          "internalType": "address",
          "name": "",
          "type": "address"
        }
      ],
      "stateMutability": "view",
      "type": "function"
    },
    {
      "inputs": [
        {
          "internalType": "uint256",
          "name": "_amount",
          "type": "uint256"
        },
        {
          "internalType": "uint256",
          "name": "_choice",
          "type": "uint256"
        },
        {
          "internalType": "uint256",
          "name": "_coinSide",
          "type": "uint256"
        }
      ],
      "name": "placeBet",
      "outputs": [],
      "stateMutability": "payable",
      "type": "function"
    }
  ],
  "bytecode": "0x60a060405234801561001057600080fd5b506040516106bd3803806106bd833981810160405281019061003291906100cf565b8073ffffffffffffffffffffffffffffffffffffffff1660808173ffffffffffffffffffffffffffffffffffffffff1681525050506100fc565b600080fd5b600073ffffffffffffffffffffffffffffffffffffffff82169050919050565b600061009c82610071565b9050919050565b6100ac81610091565b81146100b757600080fd5b50565b6000815190506100c9816100a3565b92915050565b6000602082840312156100e5576100e461006c565b5b60006100f3848285016100ba565b91505092915050565b6080516105a061011d600039600081816079015261023601526105a06000f3fe6080604052600436106100295760003560e01c8063ba1e67621461002e578063e71c969714610059575b600080fd5b34801561003a57600080fd5b50610043610075565b6040516100509190610346565b60405180910390f35b610073600480360381019061006e919061039c565b61009d565b005b60007f0000000000000000000000000000000000000000000000000000000000000000905090565b600060018111156100b1576100b06103ef565b5b60008054906101000a900460ff1660018111156100d1576100d06103ef565b5b1415610109576040517f14d0711e00000000000000000000000000000000000000000000000000000000815260040160405180910390fd5b60008060006101000a81548160ff0219169083600181111561012e5761012d6103ef565b5b021790555082341461016c576040517fe55975b600000000000000000000000000000000000000000000000000000000815260040160405180910390fd5b808214156102325760003373ffffffffffffffffffffffffffffffffffffffff1660023461019a919061044d565b6040516101a6906104d8565b60006040518083038185875af1925050503d80600081146101e3576040519150601f19603f3d011682016040523d82523d6000602084013e6101e8565b606091505b505090508061022c576040517f08c379a00000000000000000000000000000000000000000000000000000000081526004016102239061054a565b60405180910390fd5b50610300565b60007f000000000000000000000000000000000000000000000000000000000000000073ffffffffffffffffffffffffffffffffffffffff1634604051610278906104d8565b60006040518083038185875af1925050503d80600081146102b5576040519150601f19603f3d011682016040523d82523d6000602084013e6102ba565b606091505b50509050806102fe576040517f08c379a00000000000000000000000000000000000000000000000000000000081526004016102f59061054a565b60405180910390fd5b505b505050565b600073ffffffffffffffffffffffffffffffffffffffff82169050919050565b600061033082610305565b9050919050565b61034081610325565b82525050565b600060208201905061035b6000830184610337565b92915050565b600080fd5b6000819050919050565b61037981610366565b811461038457600080fd5b50565b60008135905061039681610370565b92915050565b6000806000606084860312156103b5576103b4610361565b5b60006103c386828701610387565b93505060206103d486828701610387565b92505060406103e586828701610387565b9150509250925092565b7f4e487b7100000000000000000000000000000000000000000000000000000000600052602160045260246000fd5b7f4e487b7100000000000000000000000000000000000000000000000000000000600052601160045260246000fd5b600061045882610366565b915061046383610366565b9250817fffffffffffffffffffffffffffffffffffffffffffffffffffffffffffffffff048311821515161561049c5761049b61041e565b5b828202905092915050565b600081905092915050565b50565b60006104c26000836104a7565b91506104cd826104b2565b600082019050919050565b60006104e3826104b5565b9150819050919050565b600082825260208201905092915050565b7f5472616e73666572206661696c65640000000000000000000000000000000000600082015250565b6000610534600f836104ed565b915061053f826104fe565b602082019050919050565b6000602082019050818103600083015261056381610527565b905091905056fea264697066735822122036230dfe3444f8cef7b7af396f9ad8d97a3a03d533fcbd931fdc6a4c889074da64736f6c634300080b0033",
  "linkReferences": {},
  "deployedLinkReferences": {}
}