{
  "_format": "hh-sol-artifact-1",
  "contractName": "CoinFlip",
  "sourceName": "contracts/CoinFlip.sol",
  "abi": [
    {
      "inputs": [
        {
          "internalType": "address",
          "name": "vrfCoordinatorV2",
          "type": "address"
        },
        {
          "internalType": "bytes32",
          "name": "gasLane",
          "type": "bytes32"
        },
        {
          "internalType": "uint256",
          "name": "subscriptionId",
          "type": "uint256"
        },
        {
          "internalType": "uint32",
          "name": "callBackGasLimit",
          "type": "uint32"
        },
        {
          "internalType": "address payable",
          "name": "ownerAddress",
          "type": "address"
        }
      ],
      "stateMutability": "nonpayable",
      "type": "constructor"
    },
    {
      "inputs": [],
      "name": "CoinFlip__GameIsOpen",
      "type": "error"
    },
    {
      "inputs": [],
      "name": "CoinFlip__InvalidAmount",
      "type": "error"
    },
    {
      "inputs": [
        {
          "internalType": "address",
          "name": "have",
          "type": "address"
        },
        {
          "internalType": "address",
          "name": "want",
          "type": "address"
        }
      ],
      "name": "OnlyCoordinatorCanFulfill",
      "type": "error"
    },
    {
      "anonymous": false,
      "inputs": [
        {
          "indexed": false,
          "internalType": "uint256",
          "name": "_requestId",
          "type": "uint256"
        }
      ],
      "name": "RequestedRandomNumber",
      "type": "event"
    },
    {
      "inputs": [],
      "name": "getOwnerAddres",
      "outputs": [
        {
          "internalType": "address",
          "name": "",
          "type": "address"
        }
      ],
      "stateMutability": "view",
      "type": "function"
    },
    {
      "inputs": [],
      "name": "getRecentResult",
      "outputs": [
        {
          "internalType": "uint256",
          "name": "",
          "type": "uint256"
        }
      ],
      "stateMutability": "view",
      "type": "function"
    },
    {
      "inputs": [],
      "name": "i_betAmount",
      "outputs": [
        {
          "internalType": "uint256",
          "name": "",
          "type": "uint256"
        }
      ],
      "stateMutability": "view",
      "type": "function"
    },
    {
      "inputs": [
        {
          "internalType": "uint256",
          "name": "_amount",
          "type": "uint256"
        },
        {
          "internalType": "uint256",
          "name": "_choice",
          "type": "uint256"
        }
      ],
      "name": "placeBet",
      "outputs": [],
      "stateMutability": "payable",
      "type": "function"
    },
    {
      "inputs": [
        {
          "internalType": "uint256",
          "name": "",
          "type": "uint256"
        }
      ],
      "name": "randomWords",
      "outputs": [
        {
          "internalType": "uint256",
          "name": "",
          "type": "uint256"
        }
      ],
      "stateMutability": "view",
      "type": "function"
    },
    {
      "inputs": [
        {
          "internalType": "uint256",
          "name": "requestId",
          "type": "uint256"
        },
        {
          "internalType": "uint256[]",
          "name": "randomWords",
          "type": "uint256[]"
        }
      ],
      "name": "rawFulfillRandomWords",
      "outputs": [],
      "stateMutability": "nonpayable",
      "type": "function"
    }
  ],
  "bytecode": "0x6101406040523480156200001257600080fd5b506040516200114b3803806200114b8339818101604052810190620000389190620002af565b848073ffffffffffffffffffffffffffffffffffffffff1660808173ffffffffffffffffffffffffffffffffffffffff1681525050508473ffffffffffffffffffffffffffffffffffffffff1660c08173ffffffffffffffffffffffffffffffffffffffff16815250508360e081815250508267ffffffffffffffff166101008167ffffffffffffffff16815250508163ffffffff166101208163ffffffff16815250508073ffffffffffffffffffffffffffffffffffffffff1660a08173ffffffffffffffffffffffffffffffffffffffff16815250506000600260006101000a81548160ff0219169083600181111562000139576200013862000337565b5b0217905550505050505062000366565b600080fd5b600073ffffffffffffffffffffffffffffffffffffffff82169050919050565b60006200017b826200014e565b9050919050565b6200018d816200016e565b81146200019957600080fd5b50565b600081519050620001ad8162000182565b92915050565b6000819050919050565b620001c881620001b3565b8114620001d457600080fd5b50565b600081519050620001e881620001bd565b92915050565b6000819050919050565b6200020381620001ee565b81146200020f57600080fd5b50565b6000815190506200022381620001f8565b92915050565b600063ffffffff82169050919050565b620002448162000229565b81146200025057600080fd5b50565b600081519050620002648162000239565b92915050565b600062000277826200014e565b9050919050565b62000289816200026a565b81146200029557600080fd5b50565b600081519050620002a9816200027e565b92915050565b600080600080600060a08688031215620002ce57620002cd62000149565b5b6000620002de888289016200019c565b9550506020620002f188828901620001d7565b9450506040620003048882890162000212565b9350506060620003178882890162000253565b92505060806200032a8882890162000298565b9150509295509295909350565b7f4e487b7100000000000000000000000000000000000000000000000000000000600052602160045260246000fd5b60805160a05160c05160e0516101005161012051610d87620003c4600039600061037f0152600061035c0152600061033b015260006102ff01526000818161045001526105bc01526000818161015f01526101b30152610d876000f3fe6080604052600436106100555760003560e01c80631fe543e31461005a5780634afe62b514610083578063b2d5eaa11461009f578063ba1e6762146100ca578063beff730f146100f5578063fed03ed614610132575b600080fd5b34801561006657600080fd5b50610081600480360381019061007c91906108c2565b61015d565b005b61009d6004803603810190610098919061091e565b61021d565b005b3480156100ab57600080fd5b506100b4610446565b6040516100c1919061096d565b60405180910390f35b3480156100d657600080fd5b506100df61044c565b6040516100ec91906109c9565b60405180910390f35b34801561010157600080fd5b5061011c600480360381019061011791906109e4565b610474565b604051610129919061096d565b60405180910390f35b34801561013e57600080fd5b50610147610498565b604051610154919061096d565b60405180910390f35b7f000000000000000000000000000000000000000000000000000000000000000073ffffffffffffffffffffffffffffffffffffffff163373ffffffffffffffffffffffffffffffffffffffff161461020f57337f00000000000000000000000000000000000000000000000000000000000000006040517f1cf993f4000000000000000000000000000000000000000000000000000000008152600401610206929190610a11565b60405180910390fd5b61021982826104a2565b5050565b6000600181111561023157610230610a3a565b5b600260009054906101000a900460ff16600181111561025357610252610a3a565b5b141561028b576040517f14d0711e00000000000000000000000000000000000000000000000000000000815260040160405180910390fd5b6000600260006101000a81548160ff021916908360018111156102b1576102b0610a3a565b5b02179055508134146102ef576040517fe55975b600000000000000000000000000000000000000000000000000000000815260040160405180910390fd5b80600181905550816000819055507f000000000000000000000000000000000000000000000000000000000000000073ffffffffffffffffffffffffffffffffffffffff16635d3b1d307f00000000000000000000000000000000000000000000000000000000000000007f000000000000000000000000000000000000000000000000000000000000000060037f000000000000000000000000000000000000000000000000000000000000000060016040518663ffffffff1660e01b81526004016103c0959493929190610ae1565b6020604051808303816000875af11580156103df573d6000803e3d6000fd5b505050506040513d601f19601f820116820180604052508101906104039190610b49565b6003819055507f28a75f9a78cd502748cecc04795531fd051165f83e4be1270400ac7130873e2e60035460405161043a919061096d565b60405180910390a15050565b60005481565b60007f0000000000000000000000000000000000000000000000000000000000000000905090565b6004818154811061048457600080fd5b906000526020600020016000915090505481565b6000600554905090565b8160038190555080600490805190602001906104bf9291906106b5565b506002816000815181106104d6576104d5610b76565b5b60200260200101516104e89190610bd4565b60058190555060055460015414156105b85760003373ffffffffffffffffffffffffffffffffffffffff166002346105209190610c34565b60405161052c90610cbf565b60006040518083038185875af1925050503d8060008114610569576040519150601f19603f3d011682016040523d82523d6000602084013e61056e565b606091505b50509050806105b2576040517f08c379a00000000000000000000000000000000000000000000000000000000081526004016105a990610d31565b60405180910390fd5b50610686565b60007f000000000000000000000000000000000000000000000000000000000000000073ffffffffffffffffffffffffffffffffffffffff16346040516105fe90610cbf565b60006040518083038185875af1925050503d806000811461063b576040519150601f19603f3d011682016040523d82523d6000602084013e610640565b606091505b5050905080610684576040517f08c379a000000000000000000000000000000000000000000000000000000000815260040161067b90610d31565b60405180910390fd5b505b6001600260006101000a81548160ff021916908360018111156106ac576106ab610a3a565b5b02179055505050565b8280548282559060005260206000209081019282156106f1579160200282015b828111156106f05782518255916020019190600101906106d5565b5b5090506106fe9190610702565b5090565b5b8082111561071b576000816000905550600101610703565b5090565b6000604051905090565b600080fd5b600080fd5b6000819050919050565b61074681610733565b811461075157600080fd5b50565b6000813590506107638161073d565b92915050565b600080fd5b6000601f19601f8301169050919050565b7f4e487b7100000000000000000000000000000000000000000000000000000000600052604160045260246000fd5b6107b78261076e565b810181811067ffffffffffffffff821117156107d6576107d561077f565b5b80604052505050565b60006107e961071f565b90506107f582826107ae565b919050565b600067ffffffffffffffff8211156108155761081461077f565b5b602082029050602081019050919050565b600080fd5b600061083e610839846107fa565b6107df565b9050808382526020820190506020840283018581111561086157610860610826565b5b835b8181101561088a57806108768882610754565b845260208401935050602081019050610863565b5050509392505050565b600082601f8301126108a9576108a8610769565b5b81356108b984826020860161082b565b91505092915050565b600080604083850312156108d9576108d8610729565b5b60006108e785828601610754565b925050602083013567ffffffffffffffff8111156109085761090761072e565b5b61091485828601610894565b9150509250929050565b6000806040838503121561093557610934610729565b5b600061094385828601610754565b925050602061095485828601610754565b9150509250929050565b61096781610733565b82525050565b6000602082019050610982600083018461095e565b92915050565b600073ffffffffffffffffffffffffffffffffffffffff82169050919050565b60006109b382610988565b9050919050565b6109c3816109a8565b82525050565b60006020820190506109de60008301846109ba565b92915050565b6000602082840312156109fa576109f9610729565b5b6000610a0884828501610754565b91505092915050565b6000604082019050610a2660008301856109ba565b610a3360208301846109ba565b9392505050565b7f4e487b7100000000000000000000000000000000000000000000000000000000600052602160045260246000fd5b6000819050919050565b610a7c81610a69565b82525050565b600067ffffffffffffffff82169050919050565b610a9f81610a82565b82525050565b600061ffff82169050919050565b610abc81610aa5565b82525050565b600063ffffffff82169050919050565b610adb81610ac2565b82525050565b600060a082019050610af66000830188610a73565b610b036020830187610a96565b610b106040830186610ab3565b610b1d6060830185610ad2565b610b2a6080830184610ad2565b9695505050505050565b600081519050610b438161073d565b92915050565b600060208284031215610b5f57610b5e610729565b5b6000610b6d84828501610b34565b91505092915050565b7f4e487b7100000000000000000000000000000000000000000000000000000000600052603260045260246000fd5b7f4e487b7100000000000000000000000000000000000000000000000000000000600052601260045260246000fd5b6000610bdf82610733565b9150610bea83610733565b925082610bfa57610bf9610ba5565b5b828206905092915050565b7f4e487b7100000000000000000000000000000000000000000000000000000000600052601160045260246000fd5b6000610c3f82610733565b9150610c4a83610733565b9250817fffffffffffffffffffffffffffffffffffffffffffffffffffffffffffffffff0483118215151615610c8357610c82610c05565b5b828202905092915050565b600081905092915050565b50565b6000610ca9600083610c8e565b9150610cb482610c99565b600082019050919050565b6000610cca82610c9c565b9150819050919050565b600082825260208201905092915050565b7f5472616e73666572206661696c65640000000000000000000000000000000000600082015250565b6000610d1b600f83610cd4565b9150610d2682610ce5565b602082019050919050565b60006020820190508181036000830152610d4a81610d0e565b905091905056fea2646970667358221220f3cacd2d8e9b18dc4279ee2b7cad9bd6a545f5d949e40176bb5685e1eb5d4c8664736f6c634300080b0033",
  "linkReferences": {},
  "deployedLinkReferences": {}
}